:100000000C94FE000C9426010C9426010C942601FD
:100010000C9426010C9426010C9426010C942601C4
:100020000C9426010C9426010C9426010C942601B4
:100030000C9426010C9426010C9426010C942601A4
:100040000C94FC050C9426010C946C060C9446064A
:100050000C9426010C9426010C9426010C94260184
:100060000C9426010C9426014E414E494E49545998
:10007000494E46CDCCCC3D0AD7233C17B7D1387773
:10008000CC2B329595E6241FB14F0A000020410089
:1000900000C84200401C4620BCBE4CCA1B0E5AAED3
:1000A000C59D7400407A10F35A00A0724E180900E2
:1000B00010A5D4E80000E87648170000E40B5402CD
:1000C0000000CA9A3B000000E1F505000080969808
:1000D00000000040420F000000A086010000001058
:1000E0002700000000E8030000000064000000009A
:1000F000000A00000000000100000000002C76D87B
:1001000088DC674F0823DFC1DFAE59E1B1B796E560
:10011000E3E453C63AE651997696E8E6C28426EBC4
:10012000898C9B62ED407C6FFCEFBC9C9F40F2BAD7
:10013000A56FA5F490055A2AF75C936B6CF9676D6F
:10014000C11BFCE0E40D47FEF520E6B500D0ED90C4
:100150002E0300943577050080841E080000204E91
:100160000A000000C80C333333330F986E1283112A
:1001700041EF8D2114893BE65516CFFEE6DB18D101
:10018000844B381BF77C1D901DA4BBE424203284D3
:10019000725E228100C9F124ECA1E53D2700000038
:1001A00000240027002A0000000000250028002B62
:1001B00000000000002300260029000404040404B9
:1001C0000404040202020202020303030303030104
:1001D00002040810204080010204081020010204DB
:1001E00008102000000008000201000003040700BE
:1001F00000000000000000009E06EB0A11241FBE54
:10020000CFEFD8E0DEBFCDBF22E0AAE6B1E001C06B
:100210001D92AB3AB207E1F711E0A0E0B1E0EEE9E0
:10022000F6E202C005900D92AA36B107D9F710E0A8
:10023000CDEFD0E004C02197FE010E943611CC3FE3
:10024000D107C9F70E9462070C9442130C94000076
:1002500096E0899FD0011124A25EBD4F90967C93B9
:100260006E935F9791E091969C939197E0918B02AA
:10027000F0918C0290918A02992339F0309751F0D5
:10028000811108C080913A020994309719F05C9668
:100290008C91FACF0895833081F028F4813099F061
:1002A0008230A9F008958730A9F08830C9F08430F1
:1002B000B1F4809180008F7D03C0809180008F77A2
:1002C00080938000089584B58F7784BD089584B5A8
:1002D0008F7DFBCF8091B0008F778093B000089521
:1002E0008091B0008F7DF9CFCF93DF93282F30E03E
:1002F000F901ED51FE4F8491F901E153FE4FD49184
:10030000F901E554FE4FC491CC23A1F081110E9464
:100310004B01EC2FF0E0EE0FFF1FEF54FE4FA591C5
:10032000B491EC91ED2381E090E009F480E0DF915D
:10033000CF91089580E090E0FACF1F93CF93DF93A1
:10034000282F30E0F901ED51FE4F8491F901E1537E
:10035000FE4FD491F901E554FE4FC491CC23A9F08E
:10036000162F81110E944B01EC2FF0E0EE0FFF1FC2
:10037000E955FE4FA591B4918FB7F894EC91111106
:1003800008C0D095DE23DC938FBFDF91CF911F9102
:100390000895DE2BF8CFCF93DF9390E0FC01E1537B
:1003A000FE4F249185549E4FFC0184918823C9F00F
:1003B00090E0880F991FFC01E356FE4FA591B49180
:1003C000FC01E955FE4FC591D49161110DC09FB755
:1003D000F8948C91209582238C93888128232883FC
:1003E0009FBFDF91CF910895623051F49FB7F89489
:1003F0003C91822F809583238C93E8812E2BEFCF25
:100400008FB7F894EC912E2B2C938FBFEACF3FB788
:10041000F8948091710190917201A0917301B09153
:10042000740126B5A89B05C02F3F19F00196A11DA8
:10043000B11D3FBFBA2FA92F982F8827BC01CD012E
:10044000620F711D811D911D42E0660F771F881F8D
:10045000991F4A95D1F708958F929F92AF92BF92BC
:10046000CF92DF92EF92FF924B015C010E94070254
:100470006B017C010E9407026C197D098E099F099E
:10048000683E734081059105A8F321E0821A910826
:10049000A108B10888EEC80E83E0D81EE11CF11C4B
:1004A00081149104A104B10429F7FF90EF90DF902B
:1004B000CF90BF90AF909F908F9008952FB7F894F2
:1004C00060916D0170916E0180916F01909170014A
:1004D0002FBF08950F931F93CF93DF93C82FD62F6D
:1004E00086E0C89FF0011124E25EFD4F11A2878DC6
:1004F00090A181309105F1F058F082309105F1F131
:10050000039709F440C0DF91CF911F910F91089597
:100510006623C9F361E070E08C2F0E9428010E94DD
:100520005E026093760270937702809378029093D4
:100530007902E9CF0E945E02009176021091770263
:100540002091780230917902AB01BC01401B510B24
:10055000620B730B8091880290918902B0E0A0E059
:1005600084179507A607B70748F462E070E08C2F60
:10057000DF91CF911F910F910C94280163E070E0FF
:10058000D111C1CFF4CF70E060E0F1CF862F642F9E
:100590000C94CB01862F642F0C949D01862F0C9414
:1005A00074010895AF92BF92CF92DF92EF92FF92C3
:1005B0000F931F93CF93DF936C017B018B01040F8B
:1005C000151FEB015E01AE18BF08C017D10759F027
:1005D0006991D601ED91FC910190F081E02DC60169
:1005E0000995892B79F7C501DF91CF911F910F9163
:1005F000FF90EF90DF90CF90BF90AF900895FC01F7
:10060000538D448D252F30E0842F90E0821B930B77
:10061000541710F0CF96089501970895FC01918D1D
:10062000828D981761F0A28DAE0FBF2FB11D5D9620
:100630008C91928D9F5F9F73928F90E008958FEFC2
:100640009FEF0895FC01918D828D981731F0828D76
:10065000E80FF11D858D90E008958FEF9FEF0895CD
:10066000FC01918D228D892F90E0805C9F4F821B31
:1006700091098F739927089585E791E00E943003CF
:1006800021E0892B09F420E0822F089580E090E09A
:10069000892B29F00E943C0381110C9400000895DD
:1006A000FC01A48DA80FB92FB11DA35ABF4F2C91E7
:1006B000848D90E001968F739927848FA689B789DE
:1006C0002C93A089B1898C91837080648C93938DD5
:1006D000848D981306C00288F389E02D80818F7D78
:1006E00080830895EF92FF920F931F93CF93DF9330
:1006F000EC0181E0888F9B8D8C8D98131AC0E8895E
:10070000F989808185FF15C09FB7F894EE89FF892C
:100710006083E889F98980818370806480839FBFCA
:1007200081E090E0DF91CF911F910F91FF90EF90CA
:100730000895F62E0B8D10E00F5F1F4F0F731127DA
:10074000E02E8C8D8E110CC00FB607FCFACFE88915
:10075000F989808185FFF5CFCE010E945003F1CF4A
:10076000EB8DEC0FFD2FF11DE35AFF4FF0829FB789
:10077000F8940B8FEA89FB8980818062CFCFCF9379
:10078000DF93EC01888D8823B9F0AA89BB89E889B9
:10079000F9898C9185FD03C0808186FD0DC00FB65F
:1007A00007FCF7CF8C9185FFF2CF808185FFEDCFDD
:1007B000CE010E945003E9CFDF91CF91089590E0E0
:1007C00080E00895CF93DF93EC0160E08E810E947A
:1007D0009D0161E08E810E949D0160E08E810E94FA
:1007E0009D018BE891E00197F1F7DF91CF9108959A
:1007F000CF92DF92EF92FF920F931F93CF93DF93ED
:100800006C017C0187E0E80EF11CD0E0C0E0062F0F
:1008100010E0B8010C2E02C0759567950A94E2F7B6
:100820006170F70181917F010E949D012196C43082
:10083000D10579F7C601DF91CF911F910F91FF90FC
:10084000EF90DF90CF900C94E203CF92DF92EF9283
:10085000FF920F931F93CF93DF93EC01F62E642F3B
:100860008C810E949D018D818F3F19F060E00E9474
:100870009D010F2D10E08F8584FF25C06E0187E05C
:10088000C80ED11CF12CE12CB8010E2C02C07595BC
:1008900067950A94E2F76170F60181916F010E94F9
:1008A0009D01FFEFEF1AFF0A88E0E816F10461F7F7
:1008B000CE01DF91CF911F910F91FF90EF90DF90CC
:1008C000CF900C94E203B80184E0759567958A9502
:1008D000E1F7CE010E94F8036F2DCE01DF91CF9199
:1008E0001F910F91FF90EF90DF90CF900C94F80341
:1008F00040E0682F8DE892E00C94250481E00E948E
:1009000078048BE39FE10197F1F70895CF93DF938C
:10091000823029F490919C02986090939C0280937D
:10092000A0021092A10280E48093A20280E1809351
:10093000A30280E58093A40261E0809191020E946D
:10094000CB01809192028F3F19F061E00E94CB01B0
:1009500061E0809193020E94CB01CDE8D2E09E013C
:100960002D58324080919C0284FD0BC084E090E0C1
:1009700021962817390744F461E08E810E94CB014B
:10098000EECF88E090E0F4CF8BE39DE00197F1F7A4
:1009900060E0809191020E949D0160E0809193024D
:1009A0000E949D01809192028F3F19F060E00E94A9
:1009B0009D0180919C0284FD34C063E08DE892E04B
:1009C0000E94F803CBE4D6E4CE010197F1F763E08F
:1009D0008DE892E00E94F8032197F1F763E08DE83B
:1009E00092E00E94F80383E592E00197F1F762E05C
:1009F0008DE892E00E94F80380919C0280620E9440
:100A0000780484E080939D028CE00E9478040E9428
:100A10007E0482E080939E0286E0DF91CF910C9469
:100A2000780480620E9478048BE496E40197F1F7E1
:100A300080919C0280620E94780483E592E0019795
:100A4000F1F780919C0280620E947804D5CF90914A
:100A5000A002691710F06FEF690FE62FF0E0E3577F
:100A6000FD4F9489890F80680C94780441E00E94BE
:100A7000250481E090E0089541E0682F8DE892E040
:100A80000E94250481E090E008950F931F93CF9377
:100A9000DF938C01EB01FC01808191810097E1F0F3
:100AA0006881798161157105A9F0428153812C819A
:100AB0003D814217530770F00E943B138C819D814A
:100AC000F801958384831D821C82DF91CF911F9151
:100AD0000F9108950E94D81188819981F80191831E
:100AE00080838A819B81938382838C819D8195837E
:100AF0008483198218821B821A82E5CFCF93DF93F9
:100B0000EC0188819981009711F00E94D811198217
:100B100018821D821C821B821A82DF91CF91089558
:100B2000FC0180819181009711F00C94D8110895F7
:100B30000F931F93CF93DF93EC01888199810097E6
:100B400059F02A813B812617370730F081E0DF9189
:100B5000CF911F910F9108958B016F5F7F4F0E947E
:100B60006112009759F0998388831B830A832C8133
:100B70003D81232B59F7FC011082E8CF80E0E7CFBD
:100B8000EF92FF920F931F93CF93DF93EC017B01C2
:100B90008A01BA010E94980581110BC0CE010E9402
:100BA0007E05CE01DF91CF911F910F91FF90EF90C5
:100BB00008951D830C83B701888199810E943B139E
:100BC000F0CFFB0101900020E9F73197AF01461B00
:100BD000570B0C94C005FC01118210821382128203
:100BE00015821482FB0101900020E9F73197AF01D3
:100BF000461B570B0C94C0051F920F920FB60F9215
:100C000011242F933F938F939F93AF93BF93809122
:100C10006D0190916E01A0916F01B09170013091C2
:100C20006C0123E0230F2D3758F50196A11DB11D4E
:100C300020936C0180936D0190936E01A0936F01DE
:100C4000B09370018091710190917201A091730134
:100C5000B09174010196A11DB11D80937101909313
:100C60007201A0937301B0937401BF91AF919F91F2
:100C70008F913F912F910F900FBE0F901F9018955D
:100C800026E8230F0296A11DB11DD2CF1F920F920D
:100C90000FB60F9211242F933F934F935F936F934F
:100CA0007F938F939F93AF93BF93EF93FF9385E7CA
:100CB00091E00E945003FF91EF91BF91AF919F91FE
:100CC0008F917F916F915F914F913F912F910F90F5
:100CD0000FBE0F901F9018951F920F920FB60F9294
:100CE00011242F938F939F93EF93FF93E0918501AE
:100CF000F09186018081E0918B01F0918C0182FD61
:100D00001BC0908180918E018F5F8F7320918F0126
:100D1000821741F0E0918E01F0E0EB58FE4F958F85
:100D200080938E01FF91EF919F918F912F910F9062
:100D30000FBE0F901F9018958081F4CF109278010C
:100D40001092770188EE93E0A0E0B0E08093790103
:100D500090937A01A0937B01B0937C0182E291E0B1
:100D6000909376018093750185EC90E090938201D9
:100D70008093810184EC90E09093840180938301BF
:100D800080EC90E0909386018093850181EC90E067
:100D9000909388018093870182EC90E090938A0180
:100DA0008093890186EC90E090938C0180938B0175
:100DB00010928E0110928F01109290011092910169
:100DC0001092900210928F028EE391E090938E0227
:100DD00080938D028CE0809391028FEF809392023A
:100DE0008BE0809393028AE08093940289E0809361
:100DF000950288E08093960287E080939702109294
:100E000098021092990210929A0210929B021092EC
:100E10009C0281E00E94860410922002109224021B
:100E2000109223021092250284E391E090931F0216
:100E300080931E02EAE3F2E010821482138215828C
:100E4000369682E0E637F807B9F784E091E09093B0
:100E500081028093800280E091E0909383028093EE
:100E6000820284E0809384028093850288E091E08E
:100E700090937F0280937E028AE090E090938702B5
:100E80008093860284EF91E0909389028093880298
:100E900010928C0210928B0210927A0210927B02B6
:100EA00010927C0210927D0210928A0266E671E036
:100EB00088E192E00E94EB0566E671E082E192E053
:100EC0000C94EB05CF93DF93CDB7DEB7A7970FB6A2
:100ED000F894DEBF0FBECDBF789484B5826084BD28
:100EE00084B5816084BD85B5826085BD85B581602E
:100EF00085BD80916E00816080936E0010928100AC
:100F00008091810082608093810080918100816066
:100F10008093810080918000816080938000809127
:100F2000B10084608093B1008091B00081608093B3
:100F3000B00080917A00846080937A0080917A007A
:100F4000826080937A0080917A00816080937A0039
:100F500080917A00806880937A001092C100E091BD
:100F60008501F091860182E08083E0918101F0911A
:100F700082011082E0918301F091840180E18083FD
:100F800010928D01E0918901F0918A0186E08083C1
:100F9000E0918701F0918801808180618083E091F8
:100FA0008701F0918801808188608083E0918701CA
:100FB000F0918801808180688083E0918701F091C1
:100FC000880180818F7D808382E00E94860443E1D6
:100FD00050E066E471E08DE892E00E94D20261E0A8
:100FE00083E00E9427056AE571E0CE0101960E9428
:100FF000EB0510E0812F90E02D813E818217930751
:10100000B0F4E981FA81309779F410926A01EAE646
:10101000F1E080810E943C0562E370E080E090E0B6
:101020000E942C021F5FE6CFE80FF91FF2CF64EF9A
:1010300071E080E090E00E942C02CE0101960E94B7
:1010400090050E947E0480919D02982F926090935B
:101050009D028A600E94780460E081E00E9427057A
:1010600022242A94322C0E945E022AEF30E040E0D3
:1010700050E00E94141180919D0220FD37C0982FEE
:10108000926090939D028A600E94780421E02093F0
:101090008A020E945E0200917A0210917B022091E6
:1010A0007C0230917D02AB01BC01401B510B620BF5
:1010B000730B8091860290918702B0E0A0E08417C4
:1010C0009507A607B70708F01EC110E080918402BB
:1010D000181788F4E0918002F0918102E10FF11D70
:1010E00062E080810E94CB011F5FF0CF8D7F8093F3
:1010F0009D028860C9CF912C80918502981608F0D6
:1011000063C0E92CF12CE0918202F0918302EE0D94
:10111000FF1D61E080810E94CB01E0918202F0918D
:101120008302EE0DFF1D60E080810E949D0181E041
:1011300090E0A0E0B0E0092C04C0880F991FAA1F1E
:10114000BB1F0A94D2F75C016C01C094D094812C2F
:1011500080918402881608F5082D10E0E091800245
:10116000F0918102E00FF11F80810E9474010C5FF9
:101170001F4F000F111FF801E25EFD4F892B41F454
:10118000808191818A299B29918380838394E0CFF8
:10119000808191818C219D21F7CFE0918202F09195
:1011A0008302EE0DFF1D61E080810E949D01809110
:1011B000820290918302E80EF91E60E0F7018081BF
:1011C0000E94CB01939498CF9EE1E92E92E0F92EF4
:1011D0008701F801878D90A1892B21F4148E368E1A
:1011E000258E11A20A5F1F4FF2E00A351F0789F70B
:1011F000D12C80918402D81608F053C0C12CAD2C9C
:10120000B12CAA0CBB1CC5018A5D9D4F5C012091CD
:101210008502C21608F043C0F501608171810C2C73
:1012200002C0769567950A94E2F7D29E9001112448
:101230002C0D311DEEE1F2E080E0458D568D241736
:10124000350709F4C6C18F5F36968A30B1F760FF63
:1012500024C0EEE1F2E090E080E0448D411118C03E
:10126000E0917E02F0917F02E20FF31F408156E091
:10127000589FF001599FF00D1124E25EFD4F448FFD
:10128000368F258F10A2178E61E00E946A0205C07A
:10129000019636968A30910501F7C394B8CFD3945E
:1012A000A8CFD12CF70181A18111D82EF6E0EF0E45
:1012B000F11C0E151F05B1F70E945E0260937A02C1
:1012C00070937B0280937C0290937D02DD20D9F0A5
:1012D00080913F028823B9F080913D0290913E02B7
:1012E000019789F4D0903A02D11010C080E090E0CC
:1012F000892B09F4B8CE0E943C03882309F4B3CEAD
:101300000E940000B0CE10928A02F0CF2DE2D212DD
:101310001CC08091160290911702892B39F0E09140
:101320001202F09113028081811118C065E671E00C
:1013300082E192E00E94E10541E050E065E671E063
:101340008DE892E00E94D202D1CF5FE2D51631F053
:101350005D1574F186ED8D0D823070F580916B0115
:10136000811116C06091120270911302611571050E
:1013700009F475C0409116025091170288E192E07D
:101380000E94C00566E671E082E192E00E94E105FC
:10139000D0926B0161E080E00E9427058D2D0E94B4
:1013A0003C058091160261E08F5F0E9427059ECF69
:1013B0008DE3D81609F458C0809116029091170257
:1013C000EEE2DE12DCC0892B79F00091120210915E
:1013D00013026EE270E0C8010E942713009721F00B
:1013E000801B910B97FF82CF1A8219821C821B826D
:1013F0001E821D82DAA21BA2BE016E5D7F4FCE014E
:1014000001960E94E105E980FA80E114F10409F4F3
:10141000DAC00D811E810115110509F4D4C0809137
:10142000160290911702080F191FB80182E192E08D
:101430000E949805882309F4C6C0209112023091B9
:1014400013028091160290911702B701820F931F29
:101450000E943B131093170200931602B4C088E158
:1014600092E00E947E058ECF809118029091190221
:10147000C12CD12C7601009721F00E94110B6B0139
:101480007C018091120290911302009709F44FC0E1
:101490000E94110B20916B012B3209F458C00CF003
:1014A0004AC02A3209F461C01BA21AA21DA21CA2C2
:1014B0001FA21EA28E010F5F1F4F22E044E0C30156
:1014C000B2010E94F30A009709F454C0BC01CE0196
:1014D00082960E94E105BE016E5D7F4F88E192E039
:1014E0000E944505CE0182960E94900566E671E055
:1014F00082E192E00E94E1050E947E0460E081E0CA
:101500000E94270540911C0250911D026091180213
:10151000709119028DE892E00E94D20261E080E0B1
:101520000E94270580916B010E943C05DFCE60E0A0
:1015300070E0CB01AFCF2D3289F02F3209F0B4CF5C
:101540009B01AC01C701B6010E94A21004C0A70113
:1015500096010E9436102B013C01A6CF9B01AC01E5
:10156000C701B6010E943510F6CFA70196010E946F
:10157000230FF1CFCE0182960E947E05ACCF892B3E
:1015800009F432CF67E671E0809112029091130264
:101590000E943213892B09F027CF1A8219821C82EC
:1015A0001B821E821D82DAA21BA2BE016E5D7F4FCE
:1015B000CE0101960E94E105BE016F5F7F4F82E17F
:1015C00092E00E944505CE0101960E9490058D2D66
:1015D000ABCF61705ACE82E192E00E94900588E123
:1015E00092E00C949005EF920F931F93CF93DF93AB
:1015F000E80134E047FD34E1042E000C550B57FFA1
:1016000003C0519541955109E32E022F242FAE01BD
:101610000E94150BCE01DF91CF911F910F91EF909A
:101620000895662777270C94740CA9E0B0E0EBE1ED
:10163000FBE00C94F50F6A01F22EB02E102FFBE3A5
:10164000AF2EA01608F41BE31F5F012F27E0AE01A9
:101650004F5F5F4F0E94C40DBC018981982F997024
:10166000913009F43FC09BE2E1FC04C09E2D9170D3
:10167000E0FC3AC05E2D5071E82FE87083FF46C051
:1016800084E0911101C083E0EF2DE81B8F1508F075
:10169000E0E0D6018E2F20E2552351F1992329F065
:1016A000D6019C93C60101966C0196012D5F3F4FB8
:1016B000E2FE24C08EE4D6018C9391E411969C93B3
:1016C000119712968C93D9018E2F90E281111BC035
:1016D000E20FF32FF11D10828EEF9FEF2996ECE0C1
:1016E0000C9411109DE2C6CF90E2C4CF2D9381508F
:1016F0008111FCCFCE0ED11CE0E0D0CF8EE6D6011A
:101700008C9391E6DBCF9D938150E0CF482F4470BE
:1017100082FF3DC084E0911101C083E08F1510F479
:10172000EF2DE81BD6018E2F20E2552309F19923D6
:1017300029F0D6019C93C60101966C0196012D5F9C
:101740003F4FE2FE1BC089E4D6018C938EE41196D4
:101750008C93119786E412968C93D9018E2F90E288
:10176000882309F4B5CF9D938150FACF2D938150F2
:101770008111FCCFCE0ED11CE0E0D9CF89E6D60195
:101780008C938EE611968C93119786E6E4CF9B019D
:1017900077FF02C030E020E0A1E0B0E0911102C08C
:1017A000B0E0A0E0F9013196AE0FBF1F8B2C912C59
:1017B000BB2009F461C05401EFEFAE1ABE0AAA0DB6
:1017C000BB1DFA161B0619F014F04F2D4A1B5111C0
:1017D00088C0E3FC59C07601A42FB0E2A1114FC02C
:1017E000C40ED11C992309F45BC040E0D6011196C8
:1017F000F60190836D01552309F448C0012F060FAF
:101800009A81582F507184FF03C0913309F401501D
:1018100010160CF047C0093008F008E0EEE2FE2E8A
:101820005B01A01AB10885019194819491082F3F22
:10183000320729F4D601FC92F60131966F01621746
:10184000730794F1021713077CF5DB01A21BB30B9E
:10185000AA24A394B12CAC0EBD1EAA0DBB1D1196DB
:101860008C9121503109D601119628153905F4F0D3
:10187000F60180836D01DBCFB12CA12CA0CFF70145
:10188000B1937F01A150AACF9111B0CFD601942F6F
:1018900050E302C05D9391509111FCCFC40ED11C56
:1018A00040E0ACCF01E0BACF80E3DBCF6217730733
:1018B00031F4963388F4953311F4552369F0F60129
:1018C0008083FD01842F90E2811108C0A40FB11D17
:1018D0001C9290E080E002CF81E3F1CF91938150A0
:1018E000F3CF911183CF8ACFB0E0A0E0EAE7FCE02C
:1018F0000C94F50F5C017B016115710519F0DB019A
:101900008D939C9385010F5F1F4FF501D0818D2F23
:1019100090E00E949C0E6C01892BB9F5DD32B9F57F
:101920000F5F1F4FD5011196DC91C1E05801F1E026
:10193000AF1AB10843E050E060E770E0C5010E94D3
:10194000A50E892B69F5680182E0C80ED11C45E01F
:1019500050E06BE670E0C6010E94A50E892B21F4D1
:10196000680197E0C90ED11CE114F10419F0D70108
:10197000CD92DC9260E070E080E89FEFC111FFC083
:1019800060E070E080E89FE7FAC05801BBCFDB322F
:1019900029F485010E5F1F4FF501D181C0E0C6CF4C
:1019A00043E050E068E670E0C5010E94A50E892B77
:1019B000E9F0F80110E000E020E030E0A9015F016B
:1019C000B0ED8B2E8D0E89E08815C8F19C2E6894A1
:1019D00091F88C2F8870C2FF16C0811102C00F5F72
:1019E0001F4F3196D501DC91C92DE9CFE114F104E7
:1019F00029F00E5F1F4FF7011183008360E070E054
:101A000080EC9FE7BCC0882311F001501109A5E0CC
:101A1000B0E00E94E40F9B01AC01220F331F441F72
:101A2000551F280D311D411D511D283999E93907D0
:101A3000490799E15907A8F2C6609C2ED2CFAEEFB4
:101A40008A1206C0C3FD3CC09C2E689493F8C9CF8F
:101A5000DF7DD534A9F580818D3239F4C061DF0195
:101A60001296818162E070E006C0DF018B32C1F323
:101A7000119661E070E080535D01A61AB70A8A30C2
:101A8000F8F4E0E8CE16ECE0DE065CF4B601660F92
:101A9000771F660F771FC60ED71ECC0CDD1CC80E35
:101AA000D11C5D01FFEFAF1ABF0A8C9180538A30C1
:101AB000A8F1C4FF03C0D194C194D1080C0D1D1D21
:101AC000C1FF09C0E114F10431F081E0A81AB108A6
:101AD000D701AD92BC92CA01B9010E94C20EC37077
:101AE000C33009F490584B015C0120E030E0A901BB
:101AF0000E94BD0E882309F440C0CFE9D0E017FF53
:101B000005C0119501951109C7E8D0E06E01B8E153
:101B1000CB1AD10880E2E82EF12C0FC0D501B1CF4D
:101B2000FE0125913591459154910E191F09C5016A
:101B3000B4010E94230F4B015C01D501C4010E15B5
:101B40001F0574F72497F594E794CC16DD06A9F7E2
:101B50008A2F880F8B2F881F8F3F49F020E030E0BD
:101B6000A901C501B4010E94BD0E811106C082E227
:101B700090E09093A6028093A502C501B401CDB771
:101B8000DEB7ECE00C941110283008F027E0332782
:101B9000DA01990F311D87FD91600096610571058D
:101BA00039F432602E5F3D9330E32A95E1F70895D2
:101BB0009F3F30F080387105610509F03C5F3C5F64
:101BC0003D93913008F08068911DDF93CF931F9370
:101BD0000F93FF92EF92192F987F9695E92F969584
:101BE0009695E90FFF27E350FF4F99273327EE24FF
:101BF000FF24A701E70105900894079428F4360F05
:101C0000E71EF81E491F511D660F771F881F991F79
:101C10000694A1F70590079428F4E70EF81E491FD3
:101C2000561FC11D770F881F991F661F0694A1F7C5
:101C30000590079428F4F80E491F561FC71FD11DA1
:101C4000880F991F661F771F0694A1F705900794C8
:101C500020F4490F561FC71FD81F990F661F771F03
:101C6000881F0694A9F784911095177041F0D695B6
:101C7000C79557954795F794E7941A95C1F7E3EA06
:101C8000F0E06894159015913591659195910590C6
:101C90007FE27395E118F10A430B560BC90BD0098B
:101CA000C0F7E10CF11E431F561FC91FD01D7EF463
:101CB000703311F48A95E6CFE894015030F0080FA4
:101CC0000AF40027021708F4202F2395022F7A33F5
:101CD00028F079E37D932A95E9F710C07D932A9542
:101CE00089F6069497956795379517951794E11897
:101CF000F10A430B560BC90BD00998F023957E913E
:101D000073957A3308F070E37C932013B8F77E91D3
:101D100070617D9330F0839571E37D9370E32A9534
:101D2000E1F71124EF90FF900F911F91CF91DF9178
:101D3000992787FD9095089591110C94900F80320A
:101D400019F089508550C8F70895FB01DC01415016
:101D5000504088F08D9181341CF08B350CF4805EFE
:101D6000659161341CF06B350CF4605E861B61116B
:101D700071F3990B0895881BFCCF0E94FF0E08F4A5
:101D800081E00895E89409C097FB3EF49095809512
:101D9000709561957F4F8F4F9F4F9923A9F0F92F31
:101DA00096E9BB279395F695879577956795B795AF
:101DB000F111F8CFFAF4BB0F11F460FF1BC06F5F95
:101DC0007F4F8F4F9F4F16C0882311F096E911C0A7
:101DD000772321F09EE8872F762F05C0662371F0C8
:101DE00096E8862F70E060E02AF09A95660F771FDC
:101DF000881FDAF7880F9695879597F90895990FB8
:101E00000008550FAA0BE0E8FEEF16161706E807C4
:101E1000F907C0F012161306E407F50798F0621BE5
:101E2000730B840B950B39F40A2661F0232B242BBA
:101E3000252B21F408950A2609F4A140A6958FEFD9
:101E4000811D811D08950E94360F0C94AA0F0E94D7
:101E50009C0F38F00E94A30F20F0952311F00C94F2
:101E6000930F0C94990F11240C94DE0F0E94BB0F5A
:101E700070F3959FC1F3950F50E0551F629FF001DD
:101E8000729FBB27F00DB11D639FAA27F00DB11DF6
:101E9000AA1F649F6627B00DA11D661F829F22277F
:101EA000B00DA11D621F739FB00DA11D621F839F06
:101EB000A00D611D221F749F3327A00D611D231FDC
:101EC000849F600D211D822F762F6A2F11249F572A
:101ED00050409AF0F1F088234AF0EE0FFF1FBB1F2D
:101EE000661F771F881F91505040A9F79E3F5105EC
:101EF00080F00C94930F0C94DE0F5F3FE4F3983E58
:101F0000D4F3869577956795B795F795E7959F5F95
:101F1000C1F7FE2B880F911D9695879597F9089527
:101F200099278827089597F99F6780E870E060E017
:101F300008959FEF80EC089500240A941616170662
:101F400018060906089500240A94121613061406AA
:101F500005060895092E0394000C11F4882352F00D
:101F6000BB0F40F4BF2B11F460FF04C06F5F7F4FC5
:101F70008F4F9F4F089557FD9058440F551F59F0AC
:101F80005F3F71F04795880F97FB991F61F09F3F66
:101F900079F087950895121613061406551FF2CF8F
:101FA0004695F1DF08C0161617061806991FF1CFDF
:101FB00086957105610508940895E894BB27662706
:101FC0007727CB0197F908950E942610A59F900DC1
:101FD000B49F900DA49F800D911D112408952F9200
:101FE0003F924F925F926F927F928F929F92AF92A9
:101FF000BF92CF92DF92EF92FF920F931F93CF93F6
:10200000DF93CDB7DEB7CA1BDB0B0FB6F894DEBF8C
:102010000FBECDBF09942A88398848885F846E84B2
:102020007D848C849B84AA84B984C884DF80EE80FC
:10203000FD800C811B81AA81B981CE0FD11D0FB605
:10204000F894DEBF0FBECDBFED010895A29FB00191
:10205000B39FC001A39F700D811D1124911DB29FDC
:10206000700D811D1124911D08955058BB27AA277A
:102070000E944D100C94AA0F0E949C0F38F00E94F1
:10208000A30F20F039F49F3F19F426F40C94990F14
:102090000EF4E095E7FB0C94930FE92F0E94BB0F21
:1020A00058F3BA17620773078407950720F079F48D
:1020B000A6F50C94DD0F0EF4E0950B2EBA2FA02D93
:1020C0000B01B90190010C01CA01A0011124FF27E5
:1020D000591B99F0593F50F4503E68F11A16F040E0
:1020E000A22F232F342F4427585FF3CF46953795DF
:1020F0002795A795F0405395C9F77EF41F16BA0BA4
:10210000620B730B840BBAF09150A1F0FF0FBB1F51
:10211000661F771F881FC2F70EC0BA0F621F731F9A
:10212000841F48F4879577956795B795F7959E3FF7
:1021300008F0B0CF9395880F08F09927EE0F979588
:10214000879508950E94B6100C94AA0F0E94A30FC1
:1021500058F00E949C0F40F029F45F3F29F00C9446
:10216000930F51110C94DE0F0C94990F0E94BB0F2A
:1021700068F39923B1F3552391F3951B550BBB27B6
:10218000AA2762177307840738F09F5F5F4F220FFB
:10219000331F441FAA1FA9F335D00E2E3AF0E0E8F2
:1021A00032D091505040E695001CCAF72BD0FE2F3C
:1021B00029D0660F771F881FBB1F261737074807D0
:1021C000AB07B0E809F0BB0B802DBF01FF27935888
:1021D0005F4F3AF09E3F510578F00C94930F0C94AA
:1021E000DE0F5F3FE4F3983ED4F3869577956795CD
:1021F000B795F7959F5FC9F7880F911D96958795BD
:1022000097F90895E1E0660F771F881FBB1F6217DB
:1022100073078407BA0720F0621B730B840BBA0B99
:10222000EE1F88F7E0950895A1E21A2EAA1BBB1BAA
:10223000FD010DC0AA1FBB1FEE1FFF1FA217B30792
:10224000E407F50720F0A21BB30BE40BF50B661FA8
:10225000771F881F991F1A9469F76095709580956C
:1022600090959B01AC01BD01CF010895EE0FFF1FBA
:102270000590F491E02D09940F931F93CF93DF9372
:102280008230910510F482E090E0E091A902F09193
:10229000AA0230E020E0B0E0A0E0309799F42115E8
:1022A000310509F44AC0281B390B24303105D8F513
:1022B0008A819B816115710589F1FB01938382837A
:1022C000FE0111C0408151810281138148175907D5
:1022D000E0F04817590799F4109761F012960C93A3
:1022E000129713961C933296CF01DF91CF911F91D5
:1022F0000F9108950093A9021093AA02F4CF21151B
:10230000310551F04217530738F0A901DB019A015A
:10231000BD01DF01F801C1CFEF01F9CF9093AA020F
:102320008093A902CDCFFE01E20FF31F8193919319
:102330002250310939832883D7CF2091A7023091C9
:10234000A802232B41F420911A0130911B013093F4
:10235000A8022093A702209118013091190121159C
:10236000310541F42DB73EB740911C0150911D013C
:10237000241B350BE091A702F091A802E217F307A6
:10238000A0F42E1B3F0B2817390778F0AC014E5FE5
:102390005F4F2417350748F04E0F5F1F5093A80278
:1023A0004093A702819391939FCFF0E0E0E09CCF10
:1023B000CF93DF930097E9F0FC01329713821282EA
:1023C000A091A902B091AA02ED0130E020E010979F
:1023D000A1F420813181820F931F2091A7023091B7
:1023E000A8022817390709F061C0F093A802E0930A
:1023F000A702DF91CF910895EA01CE17DF07E8F534
:102400004A815B819E0141155105B1F7E901FB83CA
:10241000EA8349915991C40FD51FEC17FD0761F468
:10242000808191810296840F951FE90199838883A9
:10243000828193819B838A83F0E0E0E012968D9104
:102440009C9113970097B9F52D913C911197CD016F
:102450000296820F931F2091A7023091A80228179D
:10246000390739F6309751F51092AA021092A90255
:10247000B093A802A093A702BCCFD383C2834081AC
:102480005181840F951FC817D90761F44E5F5F4FC4
:1024900088819981480F591F518340838A819B818C
:1024A000938382832115310509F0B0CFF093AA02FE
:1024B000E093A9029ECFFD01DC01C0CF13821282FE
:1024C000D7CFB0E0A0E0E7E6F2E10C94F10F8C0189
:1024D000009751F4CB010E943C118C01C801CDB78B
:1024E000DEB7E0E10C940D10FC01E60FF71F9C0134
:1024F00022503109E217F30708F49DC0D901CD91AC
:10250000DC911197C617D70798F0C530D10530F385
:10251000CE0104978617970708F3C61BD70B22979F
:10252000C193D1936D937C93CF010E94D811D6CFE4
:102530005B01AC1ABD0A4C018C0E9D1EA091A90234
:10254000B091AA02512C412CF12CE12C109731F5BD
:102550008091A7029091A8028815990509F05CC0A6
:102560004616570608F058C080911801909119013D
:10257000009741F48DB79EB740911C0150911D0109
:10258000841B950BE817F90708F055C0F093A802D3
:10259000E093A702F90171836083A0CF8D919C9194
:1025A000119712966C90129713967C901397A8151A
:1025B000B90559F56C0142E0C40ED11CCA14DB0404
:1025C00020F1AC014A195B09DA011296159780F0E7
:1025D0006282738251834083D9016D937C93E114AD
:1025E000F10471F0D7011396FC93EE93129776CF16
:1025F00022968C0F9D1FF90191838083F301EFCF09
:10260000F093AA02E093A90269CF4816590608F48C
:102610002C017D01D3019ACFCB010E943C117C019A
:10262000009749F0AE01B8010E941E13C8010E9434
:10263000D811870153CF10E000E050CFFB01DC013F
:1026400002C001900D9241505040D8F70895FC010E
:102650008191861721F08823D9F79927089531971A
:10266000CF010895FB01DC018D91019080190110CB
:10267000D9F3990B0895FB01DC0101900D92002024
:10268000E1F7089510E0CDEFD0E004C0FE010E9414
:0E26900036112196CE3FD107C9F7F894FFCF3F
:10269E0011100F0E050403023132332B3435362D53
:1026AE003738392A2E303D2F0000AB028000000053
:1026BE0000007203D202FF02BF0330030E03220397
:1026CE0000000000C602CA02CE020000000036055D
:1026DE00D202DF03D1024D6963726F2070726F6395
:1026EE006365736F72204C61620043616C63756C3D
:0A26FE0061746F72002D00300000BF
:00000001FF
